{
    "contractName": "MyContract",
    "abi": [
        {
            "inputs": [],
            "name": "helloWorld",
            "outputs": [
                {
                    "internalType": "string",
                    "name": "",
                    "type": "string"
                }
            ],
            "stateMutability": "pure",
            "type": "function"
        }
    ],
    "bytecode": "608060405234801561001057600080fd5b5060e58061001f6000396000f3fe6080604052348015600f57600080fd5b506004361060285760003560e01c8063c605f76c14602d575b600080fd5b604080518082018252600d81526c48656c6c6f2c20576f726c642160981b60208201529051605a91906063565b60405180910390f35b600060208083528351808285015260005b81811015608e578581018301518582016040015282016074565b506000604082860101526040601f19601f830116850101925050509291505056fea2646970667358221220abddf9bc36ec2fdcdea15be49978a673f9462371c4000ddda32192ca1389e11a64736f6c63430008130033",
    "sourcePath": "c:/Users/glent/OneDrive/Documents/SmartContract/index.sol",
    "compiler": {
        "name": "solc",
        "version": "0.8.19+commit.7dd6d404"
    },
    "functionHashes": {
        "helloWorld()": "c605f76c"
    },
    "gasEstimates": {
        "creation": {
            "codeDepositCost": "45800",
            "executionCost": "99",
            "totalCost": "45899"
        },
        "external": {
            "helloWorld()": "infinite"
        }
    }
}